:020000004A288C
:10000800B600003003178F000313360C7F39233EE8
:1000180003178D0003188F0A83168C170C14000021
:1000280000008312031336181E2803170C087F39A3
:100038000313080003170C0D0E0D031308008A297B
:10004800482AB11A202AE539F434EE330005C437BA
:10005800EE320005C83AED34E434F43CA0347310B1
:1000680025320005D4326D386539613A7539651025
:10007800E939A01264000A29E539F037EE3965102C
:10008800F434ED32A01EA012E43673008316031375
:100098005C206430A600A701F920A601A701A801E9
:1000A80047216E200F30A600A701A80147215B2831
:1000B8009B01831285018316850183128601043012
:1000C80083168600333099002430980090308312CC
:1000D80098000800C42005308C20CF20A1002608F5
:1000E800A200A3011530A6002108A7002208A80035
:1000F8004721C42003308C20CF20A1002608A2006D
:10010800A3012530A6002108A7002208A800472936
:10011800A400831606138312A501083025020318CC
:100128009E28A40D8613031C0613031806178617AA
:10013800A50A91288613831606178312061BA22880
:1001480086178613061FA628A501061FB428A50A28
:10015800250A0319B4280A30A600A701F920A928FE
:100168000310250DA700A5010530A6002708A5073F
:10017800A60BBA283830A6002508A700A8014729E9
:100188008316061383120617861706138613861717
:100198000617861308008613831606178312A40110
:1001A800113024020318F7282408083A0319E8280C
:1001B80000000000000000008617A50DA60D251000
:1001C800061B25148613F5288316061383120613B7
:1001D800000086170000000000008613831606172B
:1001E8008312A40AD428250808002608270403191E
:1001F8001029A8010430280203180B29A901453049
:10020800290203180929A90A0329A80AFE28A6030E
:10021800260A0319A703F9280800B6000C1E12299C
:10022800360899000800831203138C1E19291A082E
:100238000800FF01FF01831203138C128C1A302966
:10024800FF0A0319FF0A7F08E83A031D22297F08DD
:10025800033A031D222900341A080800B6000130A9
:100268008A00360882073034313432343334343437
:1002780035343634373438343934413442344334FD
:10028800443445344634AD01AE01A9012908260796
:100298000420AA00AA0803191D2A253A031D192AB1
:1002A800A90A290826070420AA00AA0803191D2A52
:1002B8005C3A031D6629A90A290826070420AA0012
:1002C80011211B2A2A08623A031D8229AB01083032
:1002D8002B0203181B2AA71F732931301121A71BD2
:1002E8007729303011212B08033A031D7D2920304E
:1002F80011210310A70DA80DAB0A6B292A08643A2F
:10030800031DED29A81F9D292D3011212708B700AD
:100318002808B8001030B6000310A70DA80DB70DB7
:10032800B80D031C9B29A803A703270FA80AB60B1F
:10033800902927082804031DA429303011211B2ADD
:100348000430AB00A81BDF29270828040319DF297C
:100358002708B7002808B800AC011030B600B70D60
:10036800B80DAC0D0318BC290A302C02031CBE2999
:100378000A30AC02B60BB32931302B078400831343
:100388002C0880002708B7002808B800B9011030E9
:10039800B600B70DB80DB90D0318D6290A303902C1
:1003A800031CD9290A30B9020314A70DA80DB60BEE
:1003B800CD29AB03A629AB0A05302B0203181B2A4B
:1003C80031302B0784008313000832211121AB0A36
:1003D800E0292A08683A031D0B2A303011217830A9
:1003E8001121A81B022AA8080319022A280E0F396E
:1003F800322111210F30280532211121270E0F3902
:10040800322111210F302705322111211B2A2A08F8
:10041800663A031D122A213011211B2A2A08753A2F
:10042800031D1B2A270811211B2A2A081121A90AA2
:040438004A29080045
:00000001FF
